:020000042000DA
:100000000000012099020020090300200B030020BA
:100010000D0300200F03002011030020000000004A
:10002000000000000000000000000000130300209A
:100030001503002000000000170300201903002012
:100040001B0300201D0300201F03002021030020AC
:10005000230300202503002027030020290300207C
:100060002B0300202D0300202F030020310300204C
:10007000330300203503002037030020390300201C
:100080003B0300203D0300203F03002041030020EC
:1000900043030020450300204703002049030020BC
:1000A0004B030020000000000000000000000000E2
:1000B0000000000000000000000000004D030020D0
:1000C0004F0300205103002053030020550300205C
:1000D00057030020590300205B0300205D0300202C
:1000E0005F030020610300206303002065030020FC
:1000F00067030020690300206B0300206D030020CC
:100100006F0300207103002073030020750300209B
:1001100077030020790300207B0300207D0300206B
:100120007F0300208103002083030020850300203B
:1001300087030020890300208B0300208D0300200B
:100140008F030020910300209303002095030020DB
:1001500097030020990300209B0300209D030020AB
:100160009F030020A1030020A3030020A50300207B
:10017000A7030020A9030020AB030020AD0300204B
:10018000AF030020B1030020B3030020B50300201B
:10019000B7030020B9030020BB030020BD030020EB
:1001A000BF030020C1030020C3030020C5030020BB
:1001B000C7030020C9030020CB030020CD0300208B
:1001C000CF030020D1030020D3030020D50300205B
:1001D000D7030020D9030020DB030020DD0300202B
:1001E000DF030020E1030020E3030020E5030020FB
:1001F000E7030020E9030020EB030020ED030020CB
:10020000EF030020F1030020F3030020F50300209A
:10021000F7030020F9030020FB030020FD0300206A
:10022000FF03002001040020030400200504002037
:1002300007040020090400200B0400200D04002006
:100240000F040020110400201304002015040020D6
:1002500017040020190400201B0400201D040020A6
:100260001F04002021040020230400202504002076
:1002700027040020290400202B0400202D04002046
:100280002F04002031040020330400203504002016
:100290003704002039040020684880476848002857
:1002A0000BD168486849694A884206D091421CBF10
:1002B00050F8043B41F8043BF8D165486549664A6B
:1002C000884206D091421CBF50F8043B41F8043BE1
:1002D000F8D162486249634A914218BF41F8040B61
:1002E000FAD1000000000000000000000000000043
:1002F000DFF874010FF2030E00474FF000004FF0DB
:100300000001DFF868F1FEE7FEE7FEE7FEE7FEE743
:10031000FEE7FEE7FEE7FEE7FEE7FEE7FEE7FEE7B5
:10032000FEE7FEE7FEE7FEE7FEE7FEE7FEE7FEE7A5
:10033000FEE7FEE7FEE7FEE7FEE7FEE7FEE7FEE795
:10034000FEE7FEE7FEE7FEE7FEE7FEE7FEE7FEE785
:10035000FEE7FEE7FEE7FEE7FEE7FEE7FEE7FEE775
:10036000FEE7FEE7FEE7FEE7FEE7FEE7FEE7FEE765
:10037000FEE7FEE7FEE7FEE7FEE7FEE7FEE7FEE755
:10038000FEE7FEE7FEE7FEE7FEE7FEE7FEE7FEE745
:10039000FEE7FEE7FEE7FEE7FEE7FEE7FEE7FEE735
:1003A000FEE7FEE7FEE7FEE7FEE7FEE7FEE7FEE725
:1003B000FEE7FEE7FEE7FEE7FEE7FEE7FEE7FEE715
:1003C000FEE7FEE7FEE7FEE7FEE7FEE7FEE7FEE705
:1003D000FEE7FEE7FEE7FEE7FEE7FEE7FEE7FEE7F5
:1003E000FEE7FEE7FEE7FEE7FEE7FEE7FEE7FEE7E5
:1003F000FEE7FEE7FEE7FEE7FEE7FEE7FEE7FEE7D5
:10040000FEE7FEE7FEE7FEE7FEE7FEE7FEE7FEE7C4
:10041000FEE7FEE7FEE7FEE7FEE7FEE7FEE7FEE7B4
:10042000FEE7FEE7FEE7FEE7FEE7FEE7FEE7FEE7A4
:10043000FEE7FEE7FEE7FEE7FEE7000029090020F1
:10044000000000000000002000000020C40900207F
:10045000C4090020C4090020C809002000000000D1
:10046000C8090020D009002035090020A10400207F
:1004700040F6C813C2F200031A780AB901201870B6
:10048000704700BF40F6C410C2F2000008B5036810
:100490002BB140F20003C0F2000303B1984708BD3E
:1004A00080B584B000AF00F00FF83B4640F69410E2
:1004B000C2F2000040F68411C2F200014FF01002B7
:1004C00000F044F9FEE700BF80B400AF42F2000341
:1004D000CEF2040342F20002CEF20402126B42F4A6
:1004E00000321A6342F20003CEF2040342F2000229
:1004F000CEF20402126B22F400321A63BD4680BCB5
:10050000704700BF80B485B000AF78604FF0000343
:10051000FB607B681B68002B0CD07B681B68082B7A
:1005200008D07B681B68102B04D07B681B68182BD5
:1005300000D000BE7B685B68002B08D07B685B68DE
:10054000202B04D07B685B68402B00D000BE7B680A
:100550009B68002B0CD07B689B68022B08D07B68C3
:100560009B68042B04D07B689B68062B00D000BEE0
:1005700040F20003C4F205031B68FB60FB6823F034
:100580007E03FB607B681A687B685B6842EA030253
:100590007B689B6842EA0303FA6842EA0303FB6054
:1005A00040F20003C4F20503FA681A6007F1140769
:1005B000BD4680BC704700BF80B483B000AF786098
:1005C00040F20003C4F205037A6812681A6140F22F
:1005D0000003C4F205037A6852685A6140F20003CE
:1005E000C4F205037A6892689A6140F20003C4F28B
:1005F00005037A68D268DA6107F10C07BD4680BC52
:10060000704700BF80B483B000AF0346FB71FB7935
:10061000002B03D0FB79012B00D000BEFB79002B0F
:100620000CD040F20003C4F2050340F20002C4F211
:100630000502126842F001021A600BE040F200036A
:10064000C4F2050340F20002C4F20502126822F06F
:1006500001021A6007F10C07BD4680BC704700BF5D
:1006600080B483B000AF786040F20003C4F20503A9
:100670007A689A6007F10C07BD4680BC704700BFDE
:1006800080B400AF40F20003C4F20503DB681846F3
:10069000BD4680BC704700BF80B485B000AF7860B5
:1006A0004FF00003FB737B68012B06D07B68022BA5
:1006B00003D07B68042B00D000BE40F20003C4F2DC
:1006C00005035A687B6802EA0303002B03D04FF04E
:1006D0000103FB7302E04FF00003FB73FB7B184642
:1006E00007F11407BD4680BC704700BF80B483B0DB
:1006F00000AF78607B68012B06D07B68022B03D0AB
:100700007B68042B00D000BE7B68012B0CD140F22B
:100710000003C4F2050340F20002C4F205021268AD
:1007200042F080021A600BE040F20003C4F20503BD
:1007300040F20002C4F20502126842F480721A60AC
:1007400007F10C07BD4680BC704700BF90B593B061
:1007500000AFF860B9607A603B604FF0010387F842
:100760003330FB687B63BB68BB633B68FB634FF064
:1007700000033B614FF000033B644FF000037B64D8
:100780007B6B1B68184600F0BDF803463B627B6B31
:1007900003F104037B637B6B1B68184600F0B2F81F
:1007A0000346FB617B6B03F104037B637B6B1B687C
:1007B000184600F0A7F80346BB617B6B03F1040306
:1007C0007B637B6B1B68184600F09CF803467B61DB
:1007D00007F114031846FFF7EFFE4FF000037B62AA
:1007E0004FF00003BB624FF00403FB6207F12403E8
:1007F0001846FFF787FE4FF00100FFF703FF4FF0A9
:1008000000037B646BE0BB6B1B681846FFF728FF97
:10081000BB6B03F10403BB63BB6B1B681846FFF79C
:100820001FFFBB6B03F10403BB63BB6B1B68184664
:10083000FFF716FFBB6B03F10403BB63BB6B1B68C5
:100840001846FFF70DFFBB6B03F10403BB634FF0CA
:1008500000033B614FF00100FFF71EFF03463B64BE
:100860003B6903F101033B613B69B3F5803F02D073
:100870003B6C002BEED03B6C002B04D14FF00003FF
:1008800087F8333027E04FF00100FFF72FFFFC6BB4
:10089000FFF7F6FE03462360FB6B03F10403FB63E3
:1008A000FC6BFFF7EDFE03462360FB6B03F10403D3
:1008B000FB63FC6BFFF7E4FE03462360FB6B03F175
:1008C0000403FB63FC6BFFF7DBFE03462360FB6B5B
:1008D00003F10403FB637B6C03F110037B647A6C0C
:1008E0007B689A4203D297F83330002B8BD14FF0BC
:1008F0000000FFF787FE97F83330184607F14C07E2
:10090000BD4690BD80B485B000AF78604FF0000365
:10091000FB607B681BBAFB60FB68184607F1140795
:10092000BD4680BC704700BF80B400AFBD4680BCF0
:10093000704700BF70B540F6BC1640F6BC15C2F259
:100940000006C2F20005761BB61006D0002455F84A
:10095000243001349847A642F9D840F6BC1540F639
:10096000C016C2F20005C2F20006761B00F01AF8AB
:10097000B61006D0002455F8243001349847A6421A
:10098000F9D870BD00112233445566778899AABB07
:10099000CCDDEEFF000102030405060708090A0B7F
:1009A0000C0D0E0FF8B500BFF8BC08BC9E46704792
:1009B000F8B500BFF8BC08BC9E467047850400200F
:0409C000710400209E
:0409C400000000002F
:04000005200002993C
:00000001FF
